{
  "_format": "hh-sol-artifact-1",
  "contractName": "BidRegistry",
  "sourceName": "src/contracts/BidRegistry.sol",
  "abi": [
    {
      "anonymous": false,
      "inputs": [
        {
          "indexed": true,
          "internalType": "uint256",
          "name": "id",
          "type": "uint256"
        },
        {
          "indexed": true,
          "internalType": "uint256",
          "name": "auctionId",
          "type": "uint256"
        },
        {
          "indexed": true,
          "internalType": "uint256",
          "name": "developerId",
          "type": "uint256"
        },
        {
          "indexed": false,
          "internalType": "uint256",
          "name": "amount",
          "type": "uint256"
        },
        {
          "indexed": false,
          "internalType": "uint256",
          "name": "timestamp",
          "type": "uint256"
        }
      ],
      "name": "BidCreated",
      "type": "event"
    },
    {
      "inputs": [
        {
          "internalType": "uint256",
          "name": "",
          "type": "uint256"
        }
      ],
      "name": "bids",
      "outputs": [
        {
          "internalType": "uint256",
          "name": "id",
          "type": "uint256"
        },
        {
          "internalType": "uint256",
          "name": "auctionId",
          "type": "uint256"
        },
        {
          "internalType": "uint256",
          "name": "developerId",
          "type": "uint256"
        },
        {
          "internalType": "uint256",
          "name": "amount",
          "type": "uint256"
        },
        {
          "internalType": "uint256",
          "name": "timestamp",
          "type": "uint256"
        }
      ],
      "stateMutability": "view",
      "type": "function"
    },
    {
      "inputs": [
        {
          "internalType": "uint256",
          "name": "",
          "type": "uint256"
        },
        {
          "internalType": "uint256",
          "name": "",
          "type": "uint256"
        }
      ],
      "name": "bidsByAuction",
      "outputs": [
        {
          "internalType": "uint256",
          "name": "",
          "type": "uint256"
        }
      ],
      "stateMutability": "view",
      "type": "function"
    },
    {
      "inputs": [
        {
          "internalType": "uint256",
          "name": "",
          "type": "uint256"
        },
        {
          "internalType": "uint256",
          "name": "",
          "type": "uint256"
        }
      ],
      "name": "bidsByDeveloper",
      "outputs": [
        {
          "internalType": "uint256",
          "name": "",
          "type": "uint256"
        }
      ],
      "stateMutability": "view",
      "type": "function"
    },
    {
      "inputs": [
        {
          "internalType": "uint256",
          "name": "auctionId",
          "type": "uint256"
        },
        {
          "internalType": "uint256",
          "name": "developerId",
          "type": "uint256"
        },
        {
          "internalType": "uint256",
          "name": "amount",
          "type": "uint256"
        }
      ],
      "name": "createBid",
      "outputs": [
        {
          "internalType": "uint256",
          "name": "",
          "type": "uint256"
        }
      ],
      "stateMutability": "nonpayable",
      "type": "function"
    },
    {
      "inputs": [
        {
          "internalType": "uint256",
          "name": "bidId",
          "type": "uint256"
        }
      ],
      "name": "getBid",
      "outputs": [
        {
          "components": [
            {
              "internalType": "uint256",
              "name": "id",
              "type": "uint256"
            },
            {
              "internalType": "uint256",
              "name": "auctionId",
              "type": "uint256"
            },
            {
              "internalType": "uint256",
              "name": "developerId",
              "type": "uint256"
            },
            {
              "internalType": "uint256",
              "name": "amount",
              "type": "uint256"
            },
            {
              "internalType": "uint256",
              "name": "timestamp",
              "type": "uint256"
            }
          ],
          "internalType": "struct BidRegistry.Bid",
          "name": "",
          "type": "tuple"
        }
      ],
      "stateMutability": "view",
      "type": "function"
    },
    {
      "inputs": [
        {
          "internalType": "uint256",
          "name": "auctionId",
          "type": "uint256"
        }
      ],
      "name": "getBidsByAuction",
      "outputs": [
        {
          "components": [
            {
              "internalType": "uint256",
              "name": "id",
              "type": "uint256"
            },
            {
              "internalType": "uint256",
              "name": "auctionId",
              "type": "uint256"
            },
            {
              "internalType": "uint256",
              "name": "developerId",
              "type": "uint256"
            },
            {
              "internalType": "uint256",
              "name": "amount",
              "type": "uint256"
            },
            {
              "internalType": "uint256",
              "name": "timestamp",
              "type": "uint256"
            }
          ],
          "internalType": "struct BidRegistry.Bid[]",
          "name": "",
          "type": "tuple[]"
        }
      ],
      "stateMutability": "view",
      "type": "function"
    },
    {
      "inputs": [
        {
          "internalType": "uint256",
          "name": "developerId",
          "type": "uint256"
        }
      ],
      "name": "getBidsByDeveloper",
      "outputs": [
        {
          "components": [
            {
              "internalType": "uint256",
              "name": "id",
              "type": "uint256"
            },
            {
              "internalType": "uint256",
              "name": "auctionId",
              "type": "uint256"
            },
            {
              "internalType": "uint256",
              "name": "developerId",
              "type": "uint256"
            },
            {
              "internalType": "uint256",
              "name": "amount",
              "type": "uint256"
            },
            {
              "internalType": "uint256",
              "name": "timestamp",
              "type": "uint256"
            }
          ],
          "internalType": "struct BidRegistry.Bid[]",
          "name": "",
          "type": "tuple[]"
        }
      ],
      "stateMutability": "view",
      "type": "function"
    }
  ],
  "bytecode": "0x6080604052600160005534801561001557600080fd5b506107bd806100256000396000f3fe608060405234801561001057600080fd5b506004361061007d5760003560e01c806387d8e5981161005b57806387d8e5981461012f57806390472dc814610150578063c0fb94b114610163578063f6aea1711461017657600080fd5b8063386a8bfc146100825780633c889e6f146100ab5780634423c5f1146100cb575b600080fd5b610095610090366004610615565b610189565b6040516100a2919061062e565b60405180910390f35b6100be6100b9366004610615565b6102cb565b6040516100a291906106a7565b6101076100d9366004610615565b6001602081905260009182526040909120805491810154600282015460038301546004909301549192909185565b604080519586526020860194909452928401919091526060830152608082015260a0016100a2565b61014261013d3660046106e6565b61039c565b6040519081526020016100a2565b61014261015e366004610712565b61048e565b610095610171366004610615565b6104bf565b610142610184366004610712565b6105f9565b600081815260026020526040812080546060929067ffffffffffffffff8111156101b5576101b5610734565b60405190808252806020026020018201604052801561021857816020015b6102056040518060a0016040528060008152602001600081526020016000815260200160008152602001600081525090565b8152602001906001900390816101d35790505b50905060005b82548110156102c3576001600084838154811061023d5761023d61074a565b906000526020600020015481526020019081526020016000206040518060a0016040529081600082015481526020016001820154815260200160028201548152602001600382015481526020016004820154815250508282815181106102a5576102a561074a565b602002602001018190525080806102bb90610760565b91505061021e565b509392505050565b6102fd6040518060a0016040528060008152602001600081526020016000815260200160008152602001600081525090565b60008211801561030e575060005482105b61034e5760405162461bcd60e51b815260206004820152600d60248201526c109a59081b9bdd08199bdd5b99609a1b604482015260640160405180910390fd5b50600090815260016020818152604092839020835160a08101855281548152928101549183019190915260028101549282019290925260038201546060820152600490910154608082015290565b60008054819081806103ad83610760565b909155506040805160a081018252828152602080820189815282840189815260608401898152426080860181815260008981526001808852898220985189559551888701559351600280890191909155925160038089019190915590516004909701969096558c835290845285822080548085018255908352848320018790558a8252938352848120805492830181558152829020018490558251878152908101919091529192508591879184917f409f45a2b5ffb14eb664a968da142223713565c99b0b07b97462d58e2f90ba29910160405180910390a4949350505050565b600260205281600052604060002081815481106104aa57600080fd5b90600052602060002001600091509150505481565b600081815260036020526040812080546060929067ffffffffffffffff8111156104eb576104eb610734565b60405190808252806020026020018201604052801561054e57816020015b61053b6040518060a0016040528060008152602001600081526020016000815260200160008152602001600081525090565b8152602001906001900390816105095790505b50905060005b82548110156102c357600160008483815481106105735761057361074a565b906000526020600020015481526020019081526020016000206040518060a0016040529081600082015481526020016001820154815260200160028201548152602001600382015481526020016004820154815250508282815181106105db576105db61074a565b602002602001018190525080806105f190610760565b915050610554565b600360205281600052604060002081815481106104aa57600080fd5b60006020828403121561062757600080fd5b5035919050565b6020808252825182820181905260009190848201906040850190845b8181101561069b5761068883855180518252602081015160208301526040810151604083015260608101516060830152608081015160808301525050565b9284019260a0929092019160010161064a565b50909695505050505050565b60a081016106e0828480518252602081015160208301526040810151604083015260608101516060830152608081015160808301525050565b92915050565b6000806000606084860312156106fb57600080fd5b505081359360208301359350604090920135919050565b6000806040838503121561072557600080fd5b50508035926020909101359150565b634e487b7160e01b600052604160045260246000fd5b634e487b7160e01b600052603260045260246000fd5b60006001820161078057634e487b7160e01b600052601160045260246000fd5b506001019056fea264697066735822122009a8f1cf094038d72574e319f7f94cbc580c2daaa06dceceeb06b13f8684d0d764736f6c63430008130033",
  "linkReferences": {},
  "deployedLinkReferences": {}
}